S01500004D455452343831302D546573742E737265633D
S11300000C9467000C9479000C9479000C9479009A
S11300100C9479000C9479000C9479000C94790078
S11300200C9479000C9479000C9479000C94790068
S11300300C9479000C9479000C9479000C94790058
S11300400C9479000C9479000C9479000C94790048
S11300500C9479000C9479000C9479000C94790038
S11300600C9479000C9479005F015B015F015B01E2
S11300706F016F016F016F016F016F016F016F01FC
S11300806F016F016F016F016F016F016F016F01EC
S11300906F016F016F016F016F016F016F016F01DC
S11300A067016F016F0167016B016F016F016F01E0
S11300B06F016F016F016F016F016F016F016F01BC
S11300C06B016F0163016F016F016F016301112403
S11300D01FBECFEFD4E0DEBFCDBF21E0A0E0B1E092
S11300E001C01D92A031B207E1F70E9472010C9485
S11300F0E4010C940000FC0120E030E022303105E2
S113010009F45CC03CF42115310569F02130310556
S113011061F19DC02330310509F466C024303105F6
S113012009F47FC094C0808191810097C9F0813027
S1130130910569F00196C9F48BB1887F8BB985B1BB
S113014085B98BB186608BB985B185B90EC08BB189
S1130150887F8BB985B185B98BB187608BB905C0B0
S11301608BB1887F8BB985B185B9828193810097E2
S1130170F9F08130910579F0019601F58BB18A7F10
S11301808BB985B1887F85B98BB185608BB985B111
S1130190866085B913C08BB18A7F8BB985B1887F9E
S11301A085B98BB185608BB985B1876085B906C087
S11301B08BB18A7F8BB985B1887F85B9848195811C
S11301C0009781F08130910539F0019669F44098E7
S11301D02898409A289A08C04098289888B188B9E5
S11301E0289A02C040982898868197810097A9F0A0
S11301F08130910549F00196A1F488B18C7F88B9CA
S11302002998419A299A0DC088B18C7F88B9299878
S113021088B1836088B9299A04C088B18C7F88B971
S1130220299880859185009789F08130910541F066
S1130230019669F45A988BB183608BB95A9A07C0B6
S11302405A988BB18C7F8BB95A9A01C05A982F5FF8
S11302503F4F2230310509F051CF089514B817B833
S11302601AB884B1887F84B987B1897F87B98AB184
S11302708AB984B1876084B987B1876087B98AB144
S113028087608AB915B818B81BB885B185B988B123
S113029088B9589A089580910A0190910B010E949F
S11302A0A601FC01FF27B597E333F105C0F4EC5C2C
S11302B0FF4F0C94A00110920101109200011092C2
S11302C00301109202011092050110920401109290
S11302D0070110920601109209011092080180E0B2
S11302E091E00895CF93DF93CDB7DEB72A970FB689
S11302F0F894DEBF0FBECDBFFE0131968AE0DF0168
S11303001D928A95E9F70E942E010E949C018E019C
S1130310055F1F4F0BC08D919D9181939193E017C1
S1130320F107C9F7CE0101960E947B000E944B01A0
S1130330DC01FE013196EFCF88B1856088B908955C
S1130340EE0FFF1F0590F491E02D0994CF93DF93F6
S1130350EC012B8120FF33C026FF0AC02F7B2B83A7
S11303608E819F8101969F838E838A8190E029C02C
S113037022FF0FC0E881F9818081082E000C990BBF
S1130380009719F420622B831AC03196F983E8830D
S11303900EC0EA85FB85099597FF09C02B8101965C
S11303A011F080E201C080E1822B8B8308C02E8192
S11303B03F812F5F3F4F3F832E83992702C08FEFEA
S10F03C09FEFDF91CF910895F894FFCFD8
S9030000FC
